{
  "_format": "hh-sol-artifact-1",
  "contractName": "Certificate",
  "sourceName": "contracts/Certificate.sol",
  "abi": [
    {
      "inputs": [],
      "stateMutability": "nonpayable",
      "type": "constructor"
    },
    {
      "anonymous": false,
      "inputs": [
        {
          "indexed": true,
          "internalType": "address",
          "name": "owner",
          "type": "address"
        },
        {
          "indexed": true,
          "internalType": "address",
          "name": "approved",
          "type": "address"
        },
        {
          "indexed": true,
          "internalType": "uint256",
          "name": "tokenId",
          "type": "uint256"
        }
      ],
      "name": "Approval",
      "type": "event"
    },
    {
      "anonymous": false,
      "inputs": [
        {
          "indexed": true,
          "internalType": "address",
          "name": "owner",
          "type": "address"
        },
        {
          "indexed": true,
          "internalType": "address",
          "name": "operator",
          "type": "address"
        },
        {
          "indexed": false,
          "internalType": "bool",
          "name": "approved",
          "type": "bool"
        }
      ],
      "name": "ApprovalForAll",
      "type": "event"
    },
    {
      "anonymous": false,
      "inputs": [
        {
          "indexed": true,
          "internalType": "address",
          "name": "delegator",
          "type": "address"
        },
        {
          "indexed": true,
          "internalType": "address",
          "name": "fromDelegate",
          "type": "address"
        },
        {
          "indexed": true,
          "internalType": "address",
          "name": "toDelegate",
          "type": "address"
        }
      ],
      "name": "DelegateChanged",
      "type": "event"
    },
    {
      "anonymous": false,
      "inputs": [
        {
          "indexed": true,
          "internalType": "address",
          "name": "delegate",
          "type": "address"
        },
        {
          "indexed": false,
          "internalType": "uint256",
          "name": "previousBalance",
          "type": "uint256"
        },
        {
          "indexed": false,
          "internalType": "uint256",
          "name": "newBalance",
          "type": "uint256"
        }
      ],
      "name": "DelegateVotesChanged",
      "type": "event"
    },
    {
      "anonymous": false,
      "inputs": [
        {
          "indexed": true,
          "internalType": "address",
          "name": "previousOwner",
          "type": "address"
        },
        {
          "indexed": true,
          "internalType": "address",
          "name": "newOwner",
          "type": "address"
        }
      ],
      "name": "OwnershipTransferred",
      "type": "event"
    },
    {
      "anonymous": false,
      "inputs": [
        {
          "indexed": false,
          "internalType": "address",
          "name": "account",
          "type": "address"
        }
      ],
      "name": "Paused",
      "type": "event"
    },
    {
      "anonymous": false,
      "inputs": [
        {
          "indexed": true,
          "internalType": "address",
          "name": "from",
          "type": "address"
        },
        {
          "indexed": true,
          "internalType": "address",
          "name": "to",
          "type": "address"
        },
        {
          "indexed": true,
          "internalType": "uint256",
          "name": "tokenId",
          "type": "uint256"
        }
      ],
      "name": "Transfer",
      "type": "event"
    },
    {
      "anonymous": false,
      "inputs": [
        {
          "indexed": false,
          "internalType": "address",
          "name": "account",
          "type": "address"
        }
      ],
      "name": "Unpaused",
      "type": "event"
    },
    {
      "inputs": [],
      "name": "DOMAIN_SEPARATOR",
      "outputs": [
        {
          "internalType": "bytes32",
          "name": "",
          "type": "bytes32"
        }
      ],
      "stateMutability": "view",
      "type": "function"
    },
    {
      "inputs": [
        {
          "internalType": "address",
          "name": "to",
          "type": "address"
        },
        {
          "internalType": "uint256",
          "name": "tokenId",
          "type": "uint256"
        }
      ],
      "name": "approve",
      "outputs": [],
      "stateMutability": "nonpayable",
      "type": "function"
    },
    {
      "inputs": [
        {
          "internalType": "address",
          "name": "owner",
          "type": "address"
        }
      ],
      "name": "balanceOf",
      "outputs": [
        {
          "internalType": "uint256",
          "name": "",
          "type": "uint256"
        }
      ],
      "stateMutability": "view",
      "type": "function"
    },
    {
      "inputs": [
        {
          "internalType": "uint256",
          "name": "tokenId",
          "type": "uint256"
        }
      ],
      "name": "burn",
      "outputs": [],
      "stateMutability": "nonpayable",
      "type": "function"
    },
    {
      "inputs": [
        {
          "internalType": "uint256",
          "name": "tokenId",
          "type": "uint256"
        }
      ],
      "name": "burnNFT",
      "outputs": [],
      "stateMutability": "nonpayable",
      "type": "function"
    },
    {
      "inputs": [
        {
          "internalType": "address",
          "name": "delegatee",
          "type": "address"
        }
      ],
      "name": "delegate",
      "outputs": [],
      "stateMutability": "nonpayable",
      "type": "function"
    },
    {
      "inputs": [
        {
          "internalType": "address",
          "name": "delegatee",
          "type": "address"
        },
        {
          "internalType": "uint256",
          "name": "nonce",
          "type": "uint256"
        },
        {
          "internalType": "uint256",
          "name": "expiry",
          "type": "uint256"
        },
        {
          "internalType": "uint8",
          "name": "v",
          "type": "uint8"
        },
        {
          "internalType": "bytes32",
          "name": "r",
          "type": "bytes32"
        },
        {
          "internalType": "bytes32",
          "name": "s",
          "type": "bytes32"
        }
      ],
      "name": "delegateBySig",
      "outputs": [],
      "stateMutability": "nonpayable",
      "type": "function"
    },
    {
      "inputs": [
        {
          "internalType": "address",
          "name": "account",
          "type": "address"
        }
      ],
      "name": "delegates",
      "outputs": [
        {
          "internalType": "address",
          "name": "",
          "type": "address"
        }
      ],
      "stateMutability": "view",
      "type": "function"
    },
    {
      "inputs": [
        {
          "internalType": "address",
          "name": "_user",
          "type": "address"
        }
      ],
      "name": "getAllCertificates",
      "outputs": [
        {
          "internalType": "uint256[]",
          "name": "",
          "type": "uint256[]"
        }
      ],
      "stateMutability": "view",
      "type": "function"
    },
    {
      "inputs": [
        {
          "internalType": "uint256",
          "name": "tokenId",
          "type": "uint256"
        }
      ],
      "name": "getApproved",
      "outputs": [
        {
          "internalType": "address",
          "name": "",
          "type": "address"
        }
      ],
      "stateMutability": "view",
      "type": "function"
    },
    {
      "inputs": [
        {
          "internalType": "uint256",
          "name": "blockNumber",
          "type": "uint256"
        }
      ],
      "name": "getPastTotalSupply",
      "outputs": [
        {
          "internalType": "uint256",
          "name": "",
          "type": "uint256"
        }
      ],
      "stateMutability": "view",
      "type": "function"
    },
    {
      "inputs": [
        {
          "internalType": "address",
          "name": "account",
          "type": "address"
        },
        {
          "internalType": "uint256",
          "name": "blockNumber",
          "type": "uint256"
        }
      ],
      "name": "getPastVotes",
      "outputs": [
        {
          "internalType": "uint256",
          "name": "",
          "type": "uint256"
        }
      ],
      "stateMutability": "view",
      "type": "function"
    },
    {
      "inputs": [
        {
          "internalType": "address",
          "name": "account",
          "type": "address"
        }
      ],
      "name": "getVotes",
      "outputs": [
        {
          "internalType": "uint256",
          "name": "",
          "type": "uint256"
        }
      ],
      "stateMutability": "view",
      "type": "function"
    },
    {
      "inputs": [
        {
          "internalType": "address",
          "name": "owner",
          "type": "address"
        },
        {
          "internalType": "address",
          "name": "operator",
          "type": "address"
        }
      ],
      "name": "isApprovedForAll",
      "outputs": [
        {
          "internalType": "bool",
          "name": "",
          "type": "bool"
        }
      ],
      "stateMutability": "view",
      "type": "function"
    },
    {
      "inputs": [],
      "name": "name",
      "outputs": [
        {
          "internalType": "string",
          "name": "",
          "type": "string"
        }
      ],
      "stateMutability": "view",
      "type": "function"
    },
    {
      "inputs": [
        {
          "internalType": "address",
          "name": "owner",
          "type": "address"
        }
      ],
      "name": "nonces",
      "outputs": [
        {
          "internalType": "uint256",
          "name": "",
          "type": "uint256"
        }
      ],
      "stateMutability": "view",
      "type": "function"
    },
    {
      "inputs": [],
      "name": "owner",
      "outputs": [
        {
          "internalType": "address",
          "name": "",
          "type": "address"
        }
      ],
      "stateMutability": "view",
      "type": "function"
    },
    {
      "inputs": [
        {
          "internalType": "uint256",
          "name": "tokenId",
          "type": "uint256"
        }
      ],
      "name": "ownerOf",
      "outputs": [
        {
          "internalType": "address",
          "name": "",
          "type": "address"
        }
      ],
      "stateMutability": "view",
      "type": "function"
    },
    {
      "inputs": [],
      "name": "pause",
      "outputs": [],
      "stateMutability": "nonpayable",
      "type": "function"
    },
    {
      "inputs": [],
      "name": "paused",
      "outputs": [
        {
          "internalType": "bool",
          "name": "",
          "type": "bool"
        }
      ],
      "stateMutability": "view",
      "type": "function"
    },
    {
      "inputs": [],
      "name": "renounceOwnership",
      "outputs": [],
      "stateMutability": "nonpayable",
      "type": "function"
    },
    {
      "inputs": [
        {
          "internalType": "address",
          "name": "to",
          "type": "address"
        },
        {
          "internalType": "string",
          "name": "uri",
          "type": "string"
        }
      ],
      "name": "safeMint",
      "outputs": [],
      "stateMutability": "nonpayable",
      "type": "function"
    },
    {
      "inputs": [
        {
          "internalType": "address",
          "name": "from",
          "type": "address"
        },
        {
          "internalType": "address",
          "name": "to",
          "type": "address"
        },
        {
          "internalType": "uint256",
          "name": "tokenId",
          "type": "uint256"
        }
      ],
      "name": "safeTransferFrom",
      "outputs": [],
      "stateMutability": "nonpayable",
      "type": "function"
    },
    {
      "inputs": [
        {
          "internalType": "address",
          "name": "from",
          "type": "address"
        },
        {
          "internalType": "address",
          "name": "to",
          "type": "address"
        },
        {
          "internalType": "uint256",
          "name": "tokenId",
          "type": "uint256"
        },
        {
          "internalType": "bytes",
          "name": "_data",
          "type": "bytes"
        }
      ],
      "name": "safeTransferFrom",
      "outputs": [],
      "stateMutability": "nonpayable",
      "type": "function"
    },
    {
      "inputs": [
        {
          "internalType": "address",
          "name": "operator",
          "type": "address"
        },
        {
          "internalType": "bool",
          "name": "approved",
          "type": "bool"
        }
      ],
      "name": "setApprovalForAll",
      "outputs": [],
      "stateMutability": "nonpayable",
      "type": "function"
    },
    {
      "inputs": [
        {
          "internalType": "bytes4",
          "name": "interfaceId",
          "type": "bytes4"
        }
      ],
      "name": "supportsInterface",
      "outputs": [
        {
          "internalType": "bool",
          "name": "",
          "type": "bool"
        }
      ],
      "stateMutability": "view",
      "type": "function"
    },
    {
      "inputs": [],
      "name": "symbol",
      "outputs": [
        {
          "internalType": "string",
          "name": "",
          "type": "string"
        }
      ],
      "stateMutability": "view",
      "type": "function"
    },
    {
      "inputs": [
        {
          "internalType": "uint256",
          "name": "index",
          "type": "uint256"
        }
      ],
      "name": "tokenByIndex",
      "outputs": [
        {
          "internalType": "uint256",
          "name": "",
          "type": "uint256"
        }
      ],
      "stateMutability": "view",
      "type": "function"
    },
    {
      "inputs": [
        {
          "internalType": "address",
          "name": "owner",
          "type": "address"
        },
        {
          "internalType": "uint256",
          "name": "index",
          "type": "uint256"
        }
      ],
      "name": "tokenOfOwnerByIndex",
      "outputs": [
        {
          "internalType": "uint256",
          "name": "",
          "type": "uint256"
        }
      ],
      "stateMutability": "view",
      "type": "function"
    },
    {
      "inputs": [
        {
          "internalType": "uint256",
          "name": "tokenId",
          "type": "uint256"
        }
      ],
      "name": "tokenURI",
      "outputs": [
        {
          "internalType": "string",
          "name": "",
          "type": "string"
        }
      ],
      "stateMutability": "view",
      "type": "function"
    },
    {
      "inputs": [],
      "name": "totalSupply",
      "outputs": [
        {
          "internalType": "uint256",
          "name": "",
          "type": "uint256"
        }
      ],
      "stateMutability": "view",
      "type": "function"
    },
    {
      "inputs": [
        {
          "internalType": "address",
          "name": "from",
          "type": "address"
        },
        {
          "internalType": "address",
          "name": "to",
          "type": "address"
        },
        {
          "internalType": "uint256",
          "name": "tokenId",
          "type": "uint256"
        }
      ],
      "name": "transferFrom",
      "outputs": [],
      "stateMutability": "nonpayable",
      "type": "function"
    },
    {
      "inputs": [
        {
          "internalType": "address",
          "name": "newOwner",
          "type": "address"
        }
      ],
      "name": "transferOwnership",
      "outputs": [],
      "stateMutability": "nonpayable",
      "type": "function"
    },
    {
      "inputs": [],
      "name": "unpause",
      "outputs": [],
      "stateMutability": "nonpayable",
      "type": "function"
    }
  ],
  "bytecode": "0x6101406040523480156200001257600080fd5b506040518060400160405280600881526020017f57617272616e74790000000000000000000000000000000000000000000000008152506040518060400160405280600181526020017f31000000000000000000000000000000000000000000000000000000000000008152506040518060400160405280600881526020017f57617272616e74790000000000000000000000000000000000000000000000008152506040518060400160405280600481526020017f43415244000000000000000000000000000000000000000000000000000000008152508160009080519060200190620001039291906200031c565b5080600190805190602001906200011c9291906200031c565b5050506000600b60006101000a81548160ff0219169083151502179055506200015a6200014e6200021260201b60201c565b6200021a60201b60201c565b60008280519060200120905060008280519060200120905060007f8b73c3c69bb8fe3d512ecc4cf759cc79239f7b179b0ffacaa9a75d522b39400f90508260e081815250508161010081815250504660a08181525050620001c3818484620002e060201b60201c565b608081815250503073ffffffffffffffffffffffffffffffffffffffff1660c08173ffffffffffffffffffffffffffffffffffffffff1681525050806101208181525050505050505062000509565b600033905090565b6000600b60019054906101000a900473ffffffffffffffffffffffffffffffffffffffff16905081600b60016101000a81548173ffffffffffffffffffffffffffffffffffffffff021916908373ffffffffffffffffffffffffffffffffffffffff1602179055508173ffffffffffffffffffffffffffffffffffffffff168173ffffffffffffffffffffffffffffffffffffffff167f8be0079c531659141344cd1fd0a4f28419497f9722a3daafe3b4186f6b6457e060405160405180910390a35050565b60008383834630604051602001620002fd95949392919062000447565b6040516020818303038152906040528051906020012090509392505050565b8280546200032a90620004d3565b90600052602060002090601f0160209004810192826200034e57600085556200039a565b82601f106200036957805160ff19168380011785556200039a565b828001600101855582156200039a579182015b82811115620003995782518255916020019190600101906200037c565b5b509050620003a99190620003ad565b5090565b5b80821115620003c8576000816000905550600101620003ae565b5090565b6000819050919050565b620003e181620003cc565b82525050565b6000819050919050565b620003fc81620003e7565b82525050565b600073ffffffffffffffffffffffffffffffffffffffff82169050919050565b60006200042f8262000402565b9050919050565b620004418162000422565b82525050565b600060a0820190506200045e6000830188620003d6565b6200046d6020830187620003d6565b6200047c6040830186620003d6565b6200048b6060830185620003f1565b6200049a608083018462000436565b9695505050505050565b7f4e487b7100000000000000000000000000000000000000000000000000000000600052602260045260246000fd5b60006002820490506001821680620004ec57607f821691505b60208210811415620005035762000502620004a4565b5b50919050565b60805160a05160c05160e0516101005161012051615c5c620005596000396000611b2401526000611b6601526000611b4501526000611a7a01526000611ad001526000611af90152615c5c6000f3fe608060405234801561001057600080fd5b50600436106102065760003560e01c80636352211e1161011a5780639ab24eb0116100ad578063c87b56dd1161007c578063c87b56dd146105e9578063d204c45e14610619578063e985e9c514610635578063ec1fe61114610665578063f2fde38b1461069557610206565b80639ab24eb014610565578063a22cb46514610595578063b88d4fde146105b1578063c3cda520146105cd57610206565b80638456cb59116100e95780638456cb59146104ef5780638da5cb5b146104f95780638e539e8c1461051757806395d89b411461054757610206565b80636352211e1461045557806370a0823114610485578063715018a6146104b55780637ecebe00146104bf57610206565b80633644e5151161019d57806342966c681161016c57806342966c681461039f5780634f6ccce7146103bb578063587cde1e146103eb5780635c19a95c1461041b5780635c975abb1461043757610206565b80633644e5151461032b5780633a46b1a8146103495780633f4ba83a1461037957806342842e0e1461038357610206565b806318160ddd116101d957806318160ddd146102a557806323b872dd146102c35780632890e0d7146102df5780632f745c59146102fb57610206565b806301ffc9a71461020b57806306fdde031461023b578063081812fc14610259578063095ea7b314610289575b600080fd5b61022560048036038101906102209190613d45565b6106b1565b6040516102329190613d8d565b60405180910390f35b6102436106c3565b6040516102509190613e41565b60405180910390f35b610273600480360381019061026e9190613e99565b610755565b6040516102809190613f07565b60405180910390f35b6102a3600480360381019061029e9190613f4e565b6107da565b005b6102ad6108f2565b6040516102ba9190613f9d565b60405180910390f35b6102dd60048036038101906102d89190613fb8565b6108ff565b005b6102f960048036038101906102f49190613e99565b61095f565b005b61031560048036038101906103109190613f4e565b61096b565b6040516103229190613f9d565b60405180910390f35b610333610a10565b6040516103409190614024565b60405180910390f35b610363600480360381019061035e9190613f4e565b610a1f565b6040516103709190613f9d565b60405180910390f35b610381610a7a565b005b61039d60048036038101906103989190613fb8565b610b00565b005b6103b960048036038101906103b49190613e99565b610b20565b005b6103d560048036038101906103d09190613e99565b610b7c565b6040516103e29190613f9d565b60405180910390f35b6104056004803603810190610400919061403f565b610bed565b6040516104129190613f07565b60405180910390f35b6104356004803603810190610430919061403f565b610c56565b005b61043f610c70565b60405161044c9190613d8d565b60405180910390f35b61046f600480360381019061046a9190613e99565b610c87565b60405161047c9190613f07565b60405180910390f35b61049f600480360381019061049a919061403f565b610d39565b6040516104ac9190613f9d565b60405180910390f35b6104bd610df1565b005b6104d960048036038101906104d4919061403f565b610e79565b6040516104e69190613f9d565b60405180910390f35b6104f7610ec9565b005b610501610f4f565b60405161050e9190613f07565b60405180910390f35b610531600480360381019061052c9190613e99565b610f79565b60405161053e9190613f9d565b60405180910390f35b61054f610fd8565b60405161055c9190613e41565b60405180910390f35b61057f600480360381019061057a919061403f565b61106a565b60405161058c9190613f9d565b60405180910390f35b6105af60048036038101906105aa9190614098565b6110ba565b005b6105cb60048036038101906105c6919061420d565b6110d0565b005b6105e760048036038101906105e291906142f5565b611132565b005b61060360048036038101906105fe9190613e99565b611236565b6040516106109190613e41565b60405180910390f35b610633600480360381019061062e9190614423565b611248565b005b61064f600480360381019061064a919061447f565b61135b565b60405161065c9190613d8d565b60405180910390f35b61067f600480360381019061067a919061403f565b6113ef565b60405161068c919061457d565b60405180910390f35b6106af60048036038101906106aa919061403f565b611486565b005b60006106bc8261157e565b9050919050565b6060600080546106d2906145ce565b80601f01602080910402602001604051908101604052809291908181526020018280546106fe906145ce565b801561074b5780601f106107205761010080835404028352916020019161074b565b820191906000526020600020905b81548152906001019060200180831161072e57829003601f168201915b5050505050905090565b6000610760826115f8565b61079f576040517f08c379a000000000000000000000000000000000000000000000000000000000815260040161079690614672565b60405180910390fd5b6004600083815260200190815260200160002060009054906101000a900473ffffffffffffffffffffffffffffffffffffffff169050919050565b60006107e582610c87565b90508073ffffffffffffffffffffffffffffffffffffffff168373ffffffffffffffffffffffffffffffffffffffff161415610856576040517f08c379a000000000000000000000000000000000000000000000000000000000815260040161084d90614704565b60405180910390fd5b8073ffffffffffffffffffffffffffffffffffffffff16610875611664565b73ffffffffffffffffffffffffffffffffffffffff1614806108a457506108a38161089e611664565b61135b565b5b6108e3576040517f08c379a00000000000000000000000000000000000000000000000000000000081526004016108da90614796565b60405180910390fd5b6108ed838361166c565b505050565b6000600880549050905090565b61091061090a611664565b82611725565b61094f576040517f08c379a000000000000000000000000000000000000000000000000000000000815260040161094690614828565b60405180910390fd5b61095a838383611803565b505050565b61096881611a6a565b50565b600061097683610d39565b82106109b7576040517f08c379a00000000000000000000000000000000000000000000000000000000081526004016109ae906148ba565b60405180910390fd5b600660008473ffffffffffffffffffffffffffffffffffffffff1673ffffffffffffffffffffffffffffffffffffffff168152602001908152602001600020600083815260200190815260200160002054905092915050565b6000610a1a611a76565b905090565b6000610a7282600d60008673ffffffffffffffffffffffffffffffffffffffff1673ffffffffffffffffffffffffffffffffffffffff168152602001908152602001600020611b9090919063ffffffff16565b905092915050565b610a82611664565b73ffffffffffffffffffffffffffffffffffffffff16610aa0610f4f565b73ffffffffffffffffffffffffffffffffffffffff1614610af6576040517f08c379a0000000000000000000000000000000000000000000000000000000008152600401610aed90614926565b60405180910390fd5b610afe611ce8565b565b610b1b838383604051806020016040528060008152506110d0565b505050565b610b31610b2b611664565b82611725565b610b70576040517f08c379a0000000000000000000000000000000000000000000000000000000008152600401610b67906149b8565b60405180910390fd5b610b7981611a6a565b50565b6000610b866108f2565b8210610bc7576040517f08c379a0000000000000000000000000000000000000000000000000000000008152600401610bbe90614a4a565b60405180910390fd5b60088281548110610bdb57610bda614a6a565b5b90600052602060002001549050919050565b6000600c60008373ffffffffffffffffffffffffffffffffffffffff1673ffffffffffffffffffffffffffffffffffffffff16815260200190815260200160002060009054906101000a900473ffffffffffffffffffffffffffffffffffffffff169050919050565b6000610c60611664565b9050610c6c8183611d8a565b5050565b6000600b60009054906101000a900460ff16905090565b6000806002600084815260200190815260200160002060009054906101000a900473ffffffffffffffffffffffffffffffffffffffff169050600073ffffffffffffffffffffffffffffffffffffffff168173ffffffffffffffffffffffffffffffffffffffff161415610d30576040517f08c379a0000000000000000000000000000000000000000000000000000000008152600401610d2790614b0b565b60405180910390fd5b80915050919050565b60008073ffffffffffffffffffffffffffffffffffffffff168273ffffffffffffffffffffffffffffffffffffffff161415610daa576040517f08c379a0000000000000000000000000000000000000000000000000000000008152600401610da190614b9d565b60405180910390fd5b600360008373ffffffffffffffffffffffffffffffffffffffff1673ffffffffffffffffffffffffffffffffffffffff168152602001908152602001600020549050919050565b610df9611664565b73ffffffffffffffffffffffffffffffffffffffff16610e17610f4f565b73ffffffffffffffffffffffffffffffffffffffff1614610e6d576040517f08c379a0000000000000000000000000000000000000000000000000000000008152600401610e6490614926565b60405180910390fd5b610e776000611e9e565b565b6000610ec2600f60008473ffffffffffffffffffffffffffffffffffffffff1673ffffffffffffffffffffffffffffffffffffffff168152602001908152602001600020611f64565b9050919050565b610ed1611664565b73ffffffffffffffffffffffffffffffffffffffff16610eef610f4f565b73ffffffffffffffffffffffffffffffffffffffff1614610f45576040517f08c379a0000000000000000000000000000000000000000000000000000000008152600401610f3c90614926565b60405180910390fd5b610f4d611f72565b565b6000600b60019054906101000a900473ffffffffffffffffffffffffffffffffffffffff16905090565b6000438210610fbd576040517f08c379a0000000000000000000000000000000000000000000000000000000008152600401610fb490614c09565b60405180910390fd5b610fd182600e611b9090919063ffffffff16565b9050919050565b606060018054610fe7906145ce565b80601f0160208091040260200160405190810160405280929190818152602001828054611013906145ce565b80156110605780601f1061103557610100808354040283529160200191611060565b820191906000526020600020905b81548152906001019060200180831161104357829003601f168201915b5050505050905090565b60006110b3600d60008473ffffffffffffffffffffffffffffffffffffffff1673ffffffffffffffffffffffffffffffffffffffff168152602001908152602001600020612015565b9050919050565b6110cc6110c5611664565b83836120b0565b5050565b6110e16110db611664565b83611725565b611120576040517f08c379a000000000000000000000000000000000000000000000000000000000815260040161111790614828565b60405180910390fd5b61112c8484848461221d565b50505050565b83421115611175576040517f08c379a000000000000000000000000000000000000000000000000000000000815260040161116c90614c75565b60405180910390fd5b60006111d76111cf7fe48329057bfd03d55e49b547132e39cffd9c1820ad7b9d4c5307691425d15adf8989896040516020016111b49493929190614c95565b60405160208183030381529060405280519060200120612279565b858585612293565b90506111e2816122be565b8614611223576040517f08c379a000000000000000000000000000000000000000000000000000000000815260040161121a90614d26565b60405180910390fd5b61122d8188611d8a565b50505050505050565b60606112418261231c565b9050919050565b611250611664565b73ffffffffffffffffffffffffffffffffffffffff1661126e610f4f565b73ffffffffffffffffffffffffffffffffffffffff16146112c4576040517f08c379a00000000000000000000000000000000000000000000000000000000081526004016112bb90614926565b60405180910390fd5b60006112d06010611f64565b9050601160008473ffffffffffffffffffffffffffffffffffffffff1673ffffffffffffffffffffffffffffffffffffffff168152602001908152602001600020819080600181540180825580915050600190039060005260206000200160009091909190915055611342601061246e565b61134c8382612484565b61135681836124a2565b505050565b6000600560008473ffffffffffffffffffffffffffffffffffffffff1673ffffffffffffffffffffffffffffffffffffffff16815260200190815260200160002060008373ffffffffffffffffffffffffffffffffffffffff1673ffffffffffffffffffffffffffffffffffffffff16815260200190815260200160002060009054906101000a900460ff16905092915050565b6060601160008373ffffffffffffffffffffffffffffffffffffffff1673ffffffffffffffffffffffffffffffffffffffff16815260200190815260200160002080548060200260200160405190810160405280929190818152602001828054801561147a57602002820191906000526020600020905b815481526020019060010190808311611466575b50505050509050919050565b61148e611664565b73ffffffffffffffffffffffffffffffffffffffff166114ac610f4f565b73ffffffffffffffffffffffffffffffffffffffff1614611502576040517f08c379a00000000000000000000000000000000000000000000000000000000081526004016114f990614926565b60405180910390fd5b600073ffffffffffffffffffffffffffffffffffffffff168173ffffffffffffffffffffffffffffffffffffffff161415611572576040517f08c379a000000000000000000000000000000000000000000000000000000000815260040161156990614db8565b60405180910390fd5b61157b81611e9e565b50565b60007f780e9d63000000000000000000000000000000000000000000000000000000007bffffffffffffffffffffffffffffffffffffffffffffffffffffffff1916827bffffffffffffffffffffffffffffffffffffffffffffffffffffffff191614806115f157506115f082612516565b5b9050919050565b60008073ffffffffffffffffffffffffffffffffffffffff166002600084815260200190815260200160002060009054906101000a900473ffffffffffffffffffffffffffffffffffffffff1673ffffffffffffffffffffffffffffffffffffffff1614159050919050565b600033905090565b816004600083815260200190815260200160002060006101000a81548173ffffffffffffffffffffffffffffffffffffffff021916908373ffffffffffffffffffffffffffffffffffffffff160217905550808273ffffffffffffffffffffffffffffffffffffffff166116df83610c87565b73ffffffffffffffffffffffffffffffffffffffff167f8c5be1e5ebec7d5bd14f71427d1e84f3dd0314c0f7b2291e5b200ac8c7c3b92560405160405180910390a45050565b6000611730826115f8565b61176f576040517f08c379a000000000000000000000000000000000000000000000000000000000815260040161176690614e4a565b60405180910390fd5b600061177a83610c87565b90508073ffffffffffffffffffffffffffffffffffffffff168473ffffffffffffffffffffffffffffffffffffffff1614806117bc57506117bb818561135b565b5b806117fa57508373ffffffffffffffffffffffffffffffffffffffff166117e284610755565b73ffffffffffffffffffffffffffffffffffffffff16145b91505092915050565b8273ffffffffffffffffffffffffffffffffffffffff1661182382610c87565b73ffffffffffffffffffffffffffffffffffffffff1614611879576040517f08c379a000000000000000000000000000000000000000000000000000000000815260040161187090614edc565b60405180910390fd5b600073ffffffffffffffffffffffffffffffffffffffff168273ffffffffffffffffffffffffffffffffffffffff1614156118e9576040517f08c379a00000000000000000000000000000000000000000000000000000000081526004016118e090614f6e565b60405180910390fd5b6118f48383836125f8565b6118ff60008261166c565b6001600360008573ffffffffffffffffffffffffffffffffffffffff1673ffffffffffffffffffffffffffffffffffffffff168152602001908152602001600020600082825461194f9190614fbd565b925050819055506001600360008473ffffffffffffffffffffffffffffffffffffffff1673ffffffffffffffffffffffffffffffffffffffff16815260200190815260200160002060008282546119a69190614ff1565b92505081905550816002600083815260200190815260200160002060006101000a81548173ffffffffffffffffffffffffffffffffffffffff021916908373ffffffffffffffffffffffffffffffffffffffff160217905550808273ffffffffffffffffffffffffffffffffffffffff168473ffffffffffffffffffffffffffffffffffffffff167fddf252ad1be2c89b69c2b068fc378daa952ba7f163c4a11628f55a4df523b3ef60405160405180910390a4611a65838383612650565b505050565b611a7381612660565b50565b60007f000000000000000000000000000000000000000000000000000000000000000073ffffffffffffffffffffffffffffffffffffffff163073ffffffffffffffffffffffffffffffffffffffff16148015611af257507f000000000000000000000000000000000000000000000000000000000000000046145b15611b1f577f00000000000000000000000000000000000000000000000000000000000000009050611b8d565b611b8a7f00000000000000000000000000000000000000000000000000000000000000007f00000000000000000000000000000000000000000000000000000000000000007f00000000000000000000000000000000000000000000000000000000000000006126b3565b90505b90565b6000438210611bd4576040517f08c379a0000000000000000000000000000000000000000000000000000000008152600401611bcb90615093565b60405180910390fd5b60008360000180549050905060005b81811015611c58576000611bf782846126ed565b905084866000018281548110611c1057611c0f614a6a565b5b9060005260206000200160000160009054906101000a900463ffffffff1663ffffffff161115611c4257809250611c52565b600181611c4f9190614ff1565b91505b50611be3565b60008214611cbd5784600001600183611c719190614fbd565b81548110611c8257611c81614a6a565b5b9060005260206000200160000160049054906101000a90047bffffffffffffffffffffffffffffffffffffffffffffffffffffffff16611cc0565b60005b7bffffffffffffffffffffffffffffffffffffffffffffffffffffffff169250505092915050565b611cf0610c70565b611d2f576040517f08c379a0000000000000000000000000000000000000000000000000000000008152600401611d26906150ff565b60405180910390fd5b6000600b60006101000a81548160ff0219169083151502179055507f5db9ee0a495bf2e6ff9c91a7834c1ba4fdd244a5e8aa4e537bd38aeae4b073aa611d73611664565b604051611d809190613f07565b60405180910390a1565b6000611d9583610bed565b905081600c60008573ffffffffffffffffffffffffffffffffffffffff1673ffffffffffffffffffffffffffffffffffffffff16815260200190815260200160002060006101000a81548173ffffffffffffffffffffffffffffffffffffffff021916908373ffffffffffffffffffffffffffffffffffffffff1602179055508173ffffffffffffffffffffffffffffffffffffffff168173ffffffffffffffffffffffffffffffffffffffff168473ffffffffffffffffffffffffffffffffffffffff167f3134e8a2e6d97e929a7e54011ea5485d7d196dd5f0ba4d4ef95803e8e3fc257f60405160405180910390a4611e998183611e9486612713565b612725565b505050565b6000600b60019054906101000a900473ffffffffffffffffffffffffffffffffffffffff16905081600b60016101000a81548173ffffffffffffffffffffffffffffffffffffffff021916908373ffffffffffffffffffffffffffffffffffffffff1602179055508173ffffffffffffffffffffffffffffffffffffffff168173ffffffffffffffffffffffffffffffffffffffff167f8be0079c531659141344cd1fd0a4f28419497f9722a3daafe3b4186f6b6457e060405160405180910390a35050565b600081600001549050919050565b611f7a610c70565b15611fba576040517f08c379a0000000000000000000000000000000000000000000000000000000008152600401611fb19061516b565b60405180910390fd5b6001600b60006101000a81548160ff0219169083151502179055507f62e78cea01bee320cd4e420270b5ea74000d11b0c9f74754ebdbfc544b05a258611ffe611664565b60405161200b9190613f07565b60405180910390a1565b6000808260000180549050905060008114612087578260000160018261203b9190614fbd565b8154811061204c5761204b614a6a565b5b9060005260206000200160000160049054906101000a90047bffffffffffffffffffffffffffffffffffffffffffffffffffffffff1661208a565b60005b7bffffffffffffffffffffffffffffffffffffffffffffffffffffffff16915050919050565b8173ffffffffffffffffffffffffffffffffffffffff168373ffffffffffffffffffffffffffffffffffffffff16141561211f576040517f08c379a0000000000000000000000000000000000000000000000000000000008152600401612116906151d7565b60405180910390fd5b80600560008573ffffffffffffffffffffffffffffffffffffffff1673ffffffffffffffffffffffffffffffffffffffff16815260200190815260200160002060008473ffffffffffffffffffffffffffffffffffffffff1673ffffffffffffffffffffffffffffffffffffffff16815260200190815260200160002060006101000a81548160ff0219169083151502179055508173ffffffffffffffffffffffffffffffffffffffff168373ffffffffffffffffffffffffffffffffffffffff167f17307eab39ab6107e8899845ad3d59bd9653f200f220920489ca2b5937696c31836040516122109190613d8d565b60405180910390a3505050565b612228848484611803565b61223484848484612932565b612273576040517f08c379a000000000000000000000000000000000000000000000000000000000815260040161226a90615269565b60405180910390fd5b50505050565b600061228c612286611a76565b83612ac9565b9050919050565b60008060006122a487878787612afc565b915091506122b181612c09565b8192505050949350505050565b600080600f60008473ffffffffffffffffffffffffffffffffffffffff1673ffffffffffffffffffffffffffffffffffffffff168152602001908152602001600020905061230b81611f64565b91506123168161246e565b50919050565b6060612327826115f8565b612366576040517f08c379a000000000000000000000000000000000000000000000000000000000815260040161235d906152fb565b60405180910390fd5b6000600a60008481526020019081526020016000208054612386906145ce565b80601f01602080910402602001604051908101604052809291908181526020018280546123b2906145ce565b80156123ff5780601f106123d4576101008083540402835291602001916123ff565b820191906000526020600020905b8154815290600101906020018083116123e257829003601f168201915b505050505090506000612410612dde565b9050600081511415612426578192505050612469565b60008251111561245b578082604051602001612443929190615357565b60405160208183030381529060405292505050612469565b61246484612df5565b925050505b919050565b6001816000016000828254019250508190555050565b61249e828260405180602001604052806000815250612e9c565b5050565b6124ab826115f8565b6124ea576040517f08c379a00000000000000000000000000000000000000000000000000000000081526004016124e1906153ed565b60405180910390fd5b80600a60008481526020019081526020016000209080519060200190612511929190613bf6565b505050565b60007f80ac58cd000000000000000000000000000000000000000000000000000000007bffffffffffffffffffffffffffffffffffffffffffffffffffffffff1916827bffffffffffffffffffffffffffffffffffffffffffffffffffffffff191614806125e157507f5b5e139f000000000000000000000000000000000000000000000000000000007bffffffffffffffffffffffffffffffffffffffffffffffffffffffff1916827bffffffffffffffffffffffffffffffffffffffffffffffffffffffff1916145b806125f157506125f082612ef7565b5b9050919050565b612600610c70565b15612640576040517f08c379a00000000000000000000000000000000000000000000000000000000081526004016126379061516b565b60405180910390fd5b61264b838383612f61565b505050565b61265b838383613075565b505050565b61266981613091565b6000600a60008381526020019081526020016000208054612689906145ce565b9050146126b057600a600082815260200190815260200160002060006126af9190613c7c565b5b50565b600083838346306040516020016126ce95949392919061540d565b6040516020818303038152906040528051906020012090509392505050565b600060028284186126fe919061548f565b82841661270b9190614ff1565b905092915050565b600061271e82610d39565b9050919050565b8173ffffffffffffffffffffffffffffffffffffffff168373ffffffffffffffffffffffffffffffffffffffff16141580156127615750600081115b1561292d57600073ffffffffffffffffffffffffffffffffffffffff168373ffffffffffffffffffffffffffffffffffffffff1614612849576000806127f26131ae84600d60008973ffffffffffffffffffffffffffffffffffffffff1673ffffffffffffffffffffffffffffffffffffffff1681526020019081526020016000206131c49092919063ffffffff16565b915091508473ffffffffffffffffffffffffffffffffffffffff167fdec2bacdd2f05b59de34da9b523dff8be42e5e38e818c82fdb0bae774387a724838360405161283e9291906154c0565b60405180910390a250505b600073ffffffffffffffffffffffffffffffffffffffff168273ffffffffffffffffffffffffffffffffffffffff161461292c576000806128d56131f284600d60008873ffffffffffffffffffffffffffffffffffffffff1673ffffffffffffffffffffffffffffffffffffffff1681526020019081526020016000206131c49092919063ffffffff16565b915091508373ffffffffffffffffffffffffffffffffffffffff167fdec2bacdd2f05b59de34da9b523dff8be42e5e38e818c82fdb0bae774387a72483836040516129219291906154c0565b60405180910390a250505b5b505050565b60006129538473ffffffffffffffffffffffffffffffffffffffff16613208565b15612abc578373ffffffffffffffffffffffffffffffffffffffff1663150b7a0261297c611664565b8786866040518563ffffffff1660e01b815260040161299e949392919061553e565b602060405180830381600087803b1580156129b857600080fd5b505af19250505080156129e957506040513d601f19601f820116820180604052508101906129e6919061559f565b60015b612a6c573d8060008114612a19576040519150601f19603f3d011682016040523d82523d6000602084013e612a1e565b606091505b50600081511415612a64576040517f08c379a0000000000000000000000000000000000000000000000000000000008152600401612a5b90615269565b60405180910390fd5b805181602001fd5b63150b7a0260e01b7bffffffffffffffffffffffffffffffffffffffffffffffffffffffff1916817bffffffffffffffffffffffffffffffffffffffffffffffffffffffff191614915050612ac1565b600190505b949350505050565b60008282604051602001612ade929190615639565b60405160208183030381529060405280519060200120905092915050565b6000807f7fffffffffffffffffffffffffffffff5d576e7357a4501ddfe92f46681b20a08360001c1115612b37576000600391509150612c00565b601b8560ff1614158015612b4f5750601c8560ff1614155b15612b61576000600491509150612c00565b600060018787878760405160008152602001604052604051612b86949392919061567f565b6020604051602081039080840390855afa158015612ba8573d6000803e3d6000fd5b505050602060405103519050600073ffffffffffffffffffffffffffffffffffffffff168173ffffffffffffffffffffffffffffffffffffffff161415612bf757600060019250925050612c00565b80600092509250505b94509492505050565b60006004811115612c1d57612c1c6156c4565b5b816004811115612c3057612c2f6156c4565b5b1415612c3b57612ddb565b60016004811115612c4f57612c4e6156c4565b5b816004811115612c6257612c616156c4565b5b1415612ca3576040517f08c379a0000000000000000000000000000000000000000000000000000000008152600401612c9a9061573f565b60405180910390fd5b60026004811115612cb757612cb66156c4565b5b816004811115612cca57612cc96156c4565b5b1415612d0b576040517f08c379a0000000000000000000000000000000000000000000000000000000008152600401612d02906157ab565b60405180910390fd5b60036004811115612d1f57612d1e6156c4565b5b816004811115612d3257612d316156c4565b5b1415612d73576040517f08c379a0000000000000000000000000000000000000000000000000000000008152600401612d6a9061583d565b60405180910390fd5b600480811115612d8657612d856156c4565b5b816004811115612d9957612d986156c4565b5b1415612dda576040517f08c379a0000000000000000000000000000000000000000000000000000000008152600401612dd1906158cf565b60405180910390fd5b5b50565b606060405180602001604052806000815250905090565b6060612e00826115f8565b612e3f576040517f08c379a0000000000000000000000000000000000000000000000000000000008152600401612e3690615961565b60405180910390fd5b6000612e49612dde565b90506000815111612e695760405180602001604052806000815250612e94565b80612e738461322b565b604051602001612e84929190615357565b6040516020818303038152906040525b915050919050565b612ea6838361338c565b612eb36000848484612932565b612ef2576040517f08c379a0000000000000000000000000000000000000000000000000000000008152600401612ee990615269565b60405180910390fd5b505050565b60007f01ffc9a7000000000000000000000000000000000000000000000000000000007bffffffffffffffffffffffffffffffffffffffffffffffffffffffff1916827bffffffffffffffffffffffffffffffffffffffffffffffffffffffff1916149050919050565b612f6c838383613566565b600073ffffffffffffffffffffffffffffffffffffffff168373ffffffffffffffffffffffffffffffffffffffff161415612faf57612faa8161356b565b612fee565b8173ffffffffffffffffffffffffffffffffffffffff168373ffffffffffffffffffffffffffffffffffffffff1614612fed57612fec83826135b4565b5b5b600073ffffffffffffffffffffffffffffffffffffffff168273ffffffffffffffffffffffffffffffffffffffff1614156130315761302c81613721565b613070565b8273ffffffffffffffffffffffffffffffffffffffff168273ffffffffffffffffffffffffffffffffffffffff161461306f5761306e82826137f2565b5b5b505050565b61308183836001613871565b61308c838383613931565b505050565b600061309c82610c87565b90506130aa816000846125f8565b6130b560008361166c565b6001600360008373ffffffffffffffffffffffffffffffffffffffff1673ffffffffffffffffffffffffffffffffffffffff16815260200190815260200160002060008282546131059190614fbd565b925050819055506002600083815260200190815260200160002060006101000a81549073ffffffffffffffffffffffffffffffffffffffff021916905581600073ffffffffffffffffffffffffffffffffffffffff168273ffffffffffffffffffffffffffffffffffffffff167fddf252ad1be2c89b69c2b068fc378daa952ba7f163c4a11628f55a4df523b3ef60405160405180910390a46131aa81600084612650565b5050565b600081836131bc9190614fbd565b905092915050565b6000806131e6856131e16131d788612015565b868863ffffffff16565b613936565b91509150935093915050565b600081836132009190614ff1565b905092915050565b6000808273ffffffffffffffffffffffffffffffffffffffff163b119050919050565b60606000821415613273576040518060400160405280600181526020017f30000000000000000000000000000000000000000000000000000000000000008152509050613387565b600082905060005b600082146132a557808061328e90615981565b915050600a8261329e919061548f565b915061327b565b60008167ffffffffffffffff8111156132c1576132c06140e2565b5b6040519080825280601f01601f1916602001820160405280156132f35781602001600182028036833780820191505090505b5090505b600085146133805760018261330c9190614fbd565b9150600a8561331b91906159ca565b60306133279190614ff1565b60f81b81838151811061333d5761333c614a6a565b5b60200101907effffffffffffffffffffffffffffffffffffffffffffffffffffffffffffff1916908160001a905350600a85613379919061548f565b94506132f7565b8093505050505b919050565b600073ffffffffffffffffffffffffffffffffffffffff168273ffffffffffffffffffffffffffffffffffffffff1614156133fc576040517f08c379a00000000000000000000000000000000000000000000000000000000081526004016133f390615a47565b60405180910390fd5b613405816115f8565b15613445576040517f08c379a000000000000000000000000000000000000000000000000000000000815260040161343c90615ab3565b60405180910390fd5b613451600083836125f8565b6001600360008473ffffffffffffffffffffffffffffffffffffffff1673ffffffffffffffffffffffffffffffffffffffff16815260200190815260200160002060008282546134a19190614ff1565b92505081905550816002600083815260200190815260200160002060006101000a81548173ffffffffffffffffffffffffffffffffffffffff021916908373ffffffffffffffffffffffffffffffffffffffff160217905550808273ffffffffffffffffffffffffffffffffffffffff16600073ffffffffffffffffffffffffffffffffffffffff167fddf252ad1be2c89b69c2b068fc378daa952ba7f163c4a11628f55a4df523b3ef60405160405180910390a461356260008383612650565b5050565b505050565b6008805490506009600083815260200190815260200160002081905550600881908060018154018082558091505060019003906000526020600020016000909190919091505550565b600060016135c184610d39565b6135cb9190614fbd565b90506000600760008481526020019081526020016000205490508181146136b0576000600660008673ffffffffffffffffffffffffffffffffffffffff1673ffffffffffffffffffffffffffffffffffffffff168152602001908152602001600020600084815260200190815260200160002054905080600660008773ffffffffffffffffffffffffffffffffffffffff1673ffffffffffffffffffffffffffffffffffffffff168152602001908152602001600020600084815260200190815260200160002081905550816007600083815260200190815260200160002081905550505b6007600084815260200190815260200160002060009055600660008573ffffffffffffffffffffffffffffffffffffffff1673ffffffffffffffffffffffffffffffffffffffff16815260200190815260200160002060008381526020019081526020016000206000905550505050565b600060016008805490506137359190614fbd565b905060006009600084815260200190815260200160002054905060006008838154811061376557613764614a6a565b5b90600052602060002001549050806008838154811061378757613786614a6a565b5b9060005260206000200181905550816009600083815260200190815260200160002081905550600960008581526020019081526020016000206000905560088054806137d6576137d5615ad3565b5b6001900381819060005260206000200160009055905550505050565b60006137fd83610d39565b905081600660008573ffffffffffffffffffffffffffffffffffffffff1673ffffffffffffffffffffffffffffffffffffffff168152602001908152602001600020600083815260200190815260200160002081905550806007600084815260200190815260200160002081905550505050565b600073ffffffffffffffffffffffffffffffffffffffff168373ffffffffffffffffffffffffffffffffffffffff1614156138c1576138be6131f282600e6131c49092919063ffffffff16565b50505b600073ffffffffffffffffffffffffffffffffffffffff168273ffffffffffffffffffffffffffffffffffffffff1614156139115761390e6131ae82600e6131c49092919063ffffffff16565b50505b61392c61391d84610bed565b61392684610bed565b83612725565b505050565b505050565b600080600084600001805490509050600061395086612015565b90506000821180156139a65750438660000160018461396f9190614fbd565b815481106139805761397f614a6a565b5b9060005260206000200160000160009054906101000a900463ffffffff1663ffffffff16145b15613a36576139b485613b38565b866000016001846139c59190614fbd565b815481106139d6576139d5614a6a565b5b9060005260206000200160000160046101000a8154817bffffffffffffffffffffffffffffffffffffffffffffffffffffffff02191690837bffffffffffffffffffffffffffffffffffffffffffffffffffffffff160217905550613b29565b856000016040518060400160405280613a4e43613ba3565b63ffffffff168152602001613a6288613b38565b7bffffffffffffffffffffffffffffffffffffffffffffffffffffffff168152509080600181540180825580915050600190039060005260206000200160009091909190915060008201518160000160006101000a81548163ffffffff021916908363ffffffff16021790555060208201518160000160046101000a8154817bffffffffffffffffffffffffffffffffffffffffffffffffffffffff02191690837bffffffffffffffffffffffffffffffffffffffffffffffffffffffff16021790555050505b80859350935050509250929050565b60007bffffffffffffffffffffffffffffffffffffffffffffffffffffffff8016821115613b9b576040517f08c379a0000000000000000000000000000000000000000000000000000000008152600401613b9290615b74565b60405180910390fd5b819050919050565b600063ffffffff8016821115613bee576040517f08c379a0000000000000000000000000000000000000000000000000000000008152600401613be590615c06565b60405180910390fd5b819050919050565b828054613c02906145ce565b90600052602060002090601f016020900481019282613c245760008555613c6b565b82601f10613c3d57805160ff1916838001178555613c6b565b82800160010185558215613c6b579182015b82811115613c6a578251825591602001919060010190613c4f565b5b509050613c789190613cbc565b5090565b508054613c88906145ce565b6000825580601f10613c9a5750613cb9565b601f016020900490600052602060002090810190613cb89190613cbc565b5b50565b5b80821115613cd5576000816000905550600101613cbd565b5090565b6000604051905090565b600080fd5b600080fd5b60007fffffffff0000000000000000000000000000000000000000000000000000000082169050919050565b613d2281613ced565b8114613d2d57600080fd5b50565b600081359050613d3f81613d19565b92915050565b600060208284031215613d5b57613d5a613ce3565b5b6000613d6984828501613d30565b91505092915050565b60008115159050919050565b613d8781613d72565b82525050565b6000602082019050613da26000830184613d7e565b92915050565b600081519050919050565b600082825260208201905092915050565b60005b83811015613de2578082015181840152602081019050613dc7565b83811115613df1576000848401525b50505050565b6000601f19601f8301169050919050565b6000613e1382613da8565b613e1d8185613db3565b9350613e2d818560208601613dc4565b613e3681613df7565b840191505092915050565b60006020820190508181036000830152613e5b8184613e08565b905092915050565b6000819050919050565b613e7681613e63565b8114613e8157600080fd5b50565b600081359050613e9381613e6d565b92915050565b600060208284031215613eaf57613eae613ce3565b5b6000613ebd84828501613e84565b91505092915050565b600073ffffffffffffffffffffffffffffffffffffffff82169050919050565b6000613ef182613ec6565b9050919050565b613f0181613ee6565b82525050565b6000602082019050613f1c6000830184613ef8565b92915050565b613f2b81613ee6565b8114613f3657600080fd5b50565b600081359050613f4881613f22565b92915050565b60008060408385031215613f6557613f64613ce3565b5b6000613f7385828601613f39565b9250506020613f8485828601613e84565b9150509250929050565b613f9781613e63565b82525050565b6000602082019050613fb26000830184613f8e565b92915050565b600080600060608486031215613fd157613fd0613ce3565b5b6000613fdf86828701613f39565b9350506020613ff086828701613f39565b925050604061400186828701613e84565b9150509250925092565b6000819050919050565b61401e8161400b565b82525050565b60006020820190506140396000830184614015565b92915050565b60006020828403121561405557614054613ce3565b5b600061406384828501613f39565b91505092915050565b61407581613d72565b811461408057600080fd5b50565b6000813590506140928161406c565b92915050565b600080604083850312156140af576140ae613ce3565b5b60006140bd85828601613f39565b92505060206140ce85828601614083565b9150509250929050565b600080fd5b600080fd5b7f4e487b7100000000000000000000000000000000000000000000000000000000600052604160045260246000fd5b61411a82613df7565b810181811067ffffffffffffffff82111715614139576141386140e2565b5b80604052505050565b600061414c613cd9565b90506141588282614111565b919050565b600067ffffffffffffffff821115614178576141776140e2565b5b61418182613df7565b9050602081019050919050565b82818337600083830152505050565b60006141b06141ab8461415d565b614142565b9050828152602081018484840111156141cc576141cb6140dd565b5b6141d784828561418e565b509392505050565b600082601f8301126141f4576141f36140d8565b5b813561420484826020860161419d565b91505092915050565b6000806000806080858703121561422757614226613ce3565b5b600061423587828801613f39565b945050602061424687828801613f39565b935050604061425787828801613e84565b925050606085013567ffffffffffffffff81111561427857614277613ce8565b5b614284878288016141df565b91505092959194509250565b600060ff82169050919050565b6142a681614290565b81146142b157600080fd5b50565b6000813590506142c38161429d565b92915050565b6142d28161400b565b81146142dd57600080fd5b50565b6000813590506142ef816142c9565b92915050565b60008060008060008060c0878903121561431257614311613ce3565b5b600061432089828a01613f39565b965050602061433189828a01613e84565b955050604061434289828a01613e84565b945050606061435389828a016142b4565b935050608061436489828a016142e0565b92505060a061437589828a016142e0565b9150509295509295509295565b600067ffffffffffffffff82111561439d5761439c6140e2565b5b6143a682613df7565b9050602081019050919050565b60006143c66143c184614382565b614142565b9050828152602081018484840111156143e2576143e16140dd565b5b6143ed84828561418e565b509392505050565b600082601f83011261440a576144096140d8565b5b813561441a8482602086016143b3565b91505092915050565b6000806040838503121561443a57614439613ce3565b5b600061444885828601613f39565b925050602083013567ffffffffffffffff81111561446957614468613ce8565b5b614475858286016143f5565b9150509250929050565b6000806040838503121561449657614495613ce3565b5b60006144a485828601613f39565b92505060206144b585828601613f39565b9150509250929050565b600081519050919050565b600082825260208201905092915050565b6000819050602082019050919050565b6144f481613e63565b82525050565b600061450683836144eb565b60208301905092915050565b6000602082019050919050565b600061452a826144bf565b61453481856144ca565b935061453f836144db565b8060005b8381101561457057815161455788826144fa565b975061456283614512565b925050600181019050614543565b5085935050505092915050565b60006020820190508181036000830152614597818461451f565b905092915050565b7f4e487b7100000000000000000000000000000000000000000000000000000000600052602260045260246000fd5b600060028204905060018216806145e657607f821691505b602082108114156145fa576145f961459f565b5b50919050565b7f4552433732313a20617070726f76656420717565727920666f72206e6f6e657860008201527f697374656e7420746f6b656e0000000000000000000000000000000000000000602082015250565b600061465c602c83613db3565b915061466782614600565b604082019050919050565b6000602082019050818103600083015261468b8161464f565b9050919050565b7f4552433732313a20617070726f76616c20746f2063757272656e74206f776e6560008201527f7200000000000000000000000000000000000000000000000000000000000000602082015250565b60006146ee602183613db3565b91506146f982614692565b604082019050919050565b6000602082019050818103600083015261471d816146e1565b9050919050565b7f4552433732313a20617070726f76652063616c6c6572206973206e6f74206f7760008201527f6e6572206e6f7220617070726f76656420666f7220616c6c0000000000000000602082015250565b6000614780603883613db3565b915061478b82614724565b604082019050919050565b600060208201905081810360008301526147af81614773565b9050919050565b7f4552433732313a207472616e736665722063616c6c6572206973206e6f74206f60008201527f776e6572206e6f7220617070726f766564000000000000000000000000000000602082015250565b6000614812603183613db3565b915061481d826147b6565b604082019050919050565b6000602082019050818103600083015261484181614805565b9050919050565b7f455243373231456e756d657261626c653a206f776e657220696e646578206f7560008201527f74206f6620626f756e6473000000000000000000000000000000000000000000602082015250565b60006148a4602b83613db3565b91506148af82614848565b604082019050919050565b600060208201905081810360008301526148d381614897565b9050919050565b7f4f776e61626c653a2063616c6c6572206973206e6f7420746865206f776e6572600082015250565b6000614910602083613db3565b915061491b826148da565b602082019050919050565b6000602082019050818103600083015261493f81614903565b9050919050565b7f4552433732314275726e61626c653a2063616c6c6572206973206e6f74206f7760008201527f6e6572206e6f7220617070726f76656400000000000000000000000000000000602082015250565b60006149a2603083613db3565b91506149ad82614946565b604082019050919050565b600060208201905081810360008301526149d181614995565b9050919050565b7f455243373231456e756d657261626c653a20676c6f62616c20696e646578206f60008201527f7574206f6620626f756e64730000000000000000000000000000000000000000602082015250565b6000614a34602c83613db3565b9150614a3f826149d8565b604082019050919050565b60006020820190508181036000830152614a6381614a27565b9050919050565b7f4e487b7100000000000000000000000000000000000000000000000000000000600052603260045260246000fd5b7f4552433732313a206f776e657220717565727920666f72206e6f6e657869737460008201527f656e7420746f6b656e0000000000000000000000000000000000000000000000602082015250565b6000614af5602983613db3565b9150614b0082614a99565b604082019050919050565b60006020820190508181036000830152614b2481614ae8565b9050919050565b7f4552433732313a2062616c616e636520717565727920666f7220746865207a6560008201527f726f206164647265737300000000000000000000000000000000000000000000602082015250565b6000614b87602a83613db3565b9150614b9282614b2b565b604082019050919050565b60006020820190508181036000830152614bb681614b7a565b9050919050565b7f566f7465733a20626c6f636b206e6f7420796574206d696e6564000000000000600082015250565b6000614bf3601a83613db3565b9150614bfe82614bbd565b602082019050919050565b60006020820190508181036000830152614c2281614be6565b9050919050565b7f566f7465733a207369676e617475726520657870697265640000000000000000600082015250565b6000614c5f601883613db3565b9150614c6a82614c29565b602082019050919050565b60006020820190508181036000830152614c8e81614c52565b9050919050565b6000608082019050614caa6000830187614015565b614cb76020830186613ef8565b614cc46040830185613f8e565b614cd16060830184613f8e565b95945050505050565b7f566f7465733a20696e76616c6964206e6f6e6365000000000000000000000000600082015250565b6000614d10601483613db3565b9150614d1b82614cda565b602082019050919050565b60006020820190508181036000830152614d3f81614d03565b9050919050565b7f4f776e61626c653a206e6577206f776e657220697320746865207a65726f206160008201527f6464726573730000000000000000000000000000000000000000000000000000602082015250565b6000614da2602683613db3565b9150614dad82614d46565b604082019050919050565b60006020820190508181036000830152614dd181614d95565b9050919050565b7f4552433732313a206f70657261746f7220717565727920666f72206e6f6e657860008201527f697374656e7420746f6b656e0000000000000000000000000000000000000000602082015250565b6000614e34602c83613db3565b9150614e3f82614dd8565b604082019050919050565b60006020820190508181036000830152614e6381614e27565b9050919050565b7f4552433732313a207472616e736665722066726f6d20696e636f72726563742060008201527f6f776e6572000000000000000000000000000000000000000000000000000000602082015250565b6000614ec6602583613db3565b9150614ed182614e6a565b604082019050919050565b60006020820190508181036000830152614ef581614eb9565b9050919050565b7f4552433732313a207472616e7366657220746f20746865207a65726f2061646460008201527f7265737300000000000000000000000000000000000000000000000000000000602082015250565b6000614f58602483613db3565b9150614f6382614efc565b604082019050919050565b60006020820190508181036000830152614f8781614f4b565b9050919050565b7f4e487b7100000000000000000000000000000000000000000000000000000000600052601160045260246000fd5b6000614fc882613e63565b9150614fd383613e63565b925082821015614fe657614fe5614f8e565b5b828203905092915050565b6000614ffc82613e63565b915061500783613e63565b9250827fffffffffffffffffffffffffffffffffffffffffffffffffffffffffffffffff0382111561503c5761503b614f8e565b5b828201905092915050565b7f436865636b706f696e74733a20626c6f636b206e6f7420796574206d696e6564600082015250565b600061507d602083613db3565b915061508882615047565b602082019050919050565b600060208201905081810360008301526150ac81615070565b9050919050565b7f5061757361626c653a206e6f7420706175736564000000000000000000000000600082015250565b60006150e9601483613db3565b91506150f4826150b3565b602082019050919050565b60006020820190508181036000830152615118816150dc565b9050919050565b7f5061757361626c653a2070617573656400000000000000000000000000000000600082015250565b6000615155601083613db3565b91506151608261511f565b602082019050919050565b6000602082019050818103600083015261518481615148565b9050919050565b7f4552433732313a20617070726f766520746f2063616c6c657200000000000000600082015250565b60006151c1601983613db3565b91506151cc8261518b565b602082019050919050565b600060208201905081810360008301526151f0816151b4565b9050919050565b7f4552433732313a207472616e7366657220746f206e6f6e20455243373231526560008201527f63656976657220696d706c656d656e7465720000000000000000000000000000602082015250565b6000615253603283613db3565b915061525e826151f7565b604082019050919050565b6000602082019050818103600083015261528281615246565b9050919050565b7f45524337323155524953746f726167653a2055524920717565727920666f722060008201527f6e6f6e6578697374656e7420746f6b656e000000000000000000000000000000602082015250565b60006152e5603183613db3565b91506152f082615289565b604082019050919050565b60006020820190508181036000830152615314816152d8565b9050919050565b600081905092915050565b600061533182613da8565b61533b818561531b565b935061534b818560208601613dc4565b80840191505092915050565b60006153638285615326565b915061536f8284615326565b91508190509392505050565b7f45524337323155524953746f726167653a2055524920736574206f66206e6f6e60008201527f6578697374656e7420746f6b656e000000000000000000000000000000000000602082015250565b60006153d7602e83613db3565b91506153e28261537b565b604082019050919050565b60006020820190508181036000830152615406816153ca565b9050919050565b600060a0820190506154226000830188614015565b61542f6020830187614015565b61543c6040830186614015565b6154496060830185613f8e565b6154566080830184613ef8565b9695505050505050565b7f4e487b7100000000000000000000000000000000000000000000000000000000600052601260045260246000fd5b600061549a82613e63565b91506154a583613e63565b9250826154b5576154b4615460565b5b828204905092915050565b60006040820190506154d56000830185613f8e565b6154e26020830184613f8e565b9392505050565b600081519050919050565b600082825260208201905092915050565b6000615510826154e9565b61551a81856154f4565b935061552a818560208601613dc4565b61553381613df7565b840191505092915050565b60006080820190506155536000830187613ef8565b6155606020830186613ef8565b61556d6040830185613f8e565b818103606083015261557f8184615505565b905095945050505050565b60008151905061559981613d19565b92915050565b6000602082840312156155b5576155b4613ce3565b5b60006155c38482850161558a565b91505092915050565b7f1901000000000000000000000000000000000000000000000000000000000000600082015250565b600061560260028361531b565b915061560d826155cc565b600282019050919050565b6000819050919050565b61563361562e8261400b565b615618565b82525050565b6000615644826155f5565b91506156508285615622565b6020820191506156608284615622565b6020820191508190509392505050565b61567981614290565b82525050565b60006080820190506156946000830187614015565b6156a16020830186615670565b6156ae6040830185614015565b6156bb6060830184614015565b95945050505050565b7f4e487b7100000000000000000000000000000000000000000000000000000000600052602160045260246000fd5b7f45434453413a20696e76616c6964207369676e61747572650000000000000000600082015250565b6000615729601883613db3565b9150615734826156f3565b602082019050919050565b600060208201905081810360008301526157588161571c565b9050919050565b7f45434453413a20696e76616c6964207369676e6174757265206c656e67746800600082015250565b6000615795601f83613db3565b91506157a08261575f565b602082019050919050565b600060208201905081810360008301526157c481615788565b9050919050565b7f45434453413a20696e76616c6964207369676e6174757265202773272076616c60008201527f7565000000000000000000000000000000000000000000000000000000000000602082015250565b6000615827602283613db3565b9150615832826157cb565b604082019050919050565b600060208201905081810360008301526158568161581a565b9050919050565b7f45434453413a20696e76616c6964207369676e6174757265202776272076616c60008201527f7565000000000000000000000000000000000000000000000000000000000000602082015250565b60006158b9602283613db3565b91506158c48261585d565b604082019050919050565b600060208201905081810360008301526158e8816158ac565b9050919050565b7f4552433732314d657461646174613a2055524920717565727920666f72206e6f60008201527f6e6578697374656e7420746f6b656e0000000000000000000000000000000000602082015250565b600061594b602f83613db3565b9150615956826158ef565b604082019050919050565b6000602082019050818103600083015261597a8161593e565b9050919050565b600061598c82613e63565b91507fffffffffffffffffffffffffffffffffffffffffffffffffffffffffffffffff8214156159bf576159be614f8e565b5b600182019050919050565b60006159d582613e63565b91506159e083613e63565b9250826159f0576159ef615460565b5b828206905092915050565b7f4552433732313a206d696e7420746f20746865207a65726f2061646472657373600082015250565b6000615a31602083613db3565b9150615a3c826159fb565b602082019050919050565b60006020820190508181036000830152615a6081615a24565b9050919050565b7f4552433732313a20746f6b656e20616c7265616479206d696e74656400000000600082015250565b6000615a9d601c83613db3565b9150615aa882615a67565b602082019050919050565b60006020820190508181036000830152615acc81615a90565b9050919050565b7f4e487b7100000000000000000000000000000000000000000000000000000000600052603160045260246000fd5b7f53616665436173743a2076616c756520646f65736e27742066697420696e203260008201527f3234206269747300000000000000000000000000000000000000000000000000602082015250565b6000615b5e602783613db3565b9150615b6982615b02565b604082019050919050565b60006020820190508181036000830152615b8d81615b51565b9050919050565b7f53616665436173743a2076616c756520646f65736e27742066697420696e203360008201527f3220626974730000000000000000000000000000000000000000000000000000602082015250565b6000615bf0602683613db3565b9150615bfb82615b94565b604082019050919050565b60006020820190508181036000830152615c1f81615be3565b905091905056fea2646970667358221220d3b5c24b20ff35259ecf3c81da52b63ed15af69f1c6d0ed3c1e26515f19bf7d964736f6c63430008090033",
  "linkReferences": {},
  "deployedLinkReferences": {}
}